{
  "contractName": "Token",
  "abi": [
    {
      "constant": true,
      "inputs": [],
      "name": "name",
      "outputs": [
        {
          "name": "",
          "type": "string"
        }
      ],
      "payable": false,
      "stateMutability": "view",
      "type": "function"
    },
    {
      "constant": true,
      "inputs": [],
      "name": "totalSupply",
      "outputs": [
        {
          "name": "",
          "type": "uint256"
        }
      ],
      "payable": false,
      "stateMutability": "view",
      "type": "function"
    },
    {
      "constant": true,
      "inputs": [],
      "name": "decimals",
      "outputs": [
        {
          "name": "",
          "type": "uint8"
        }
      ],
      "payable": false,
      "stateMutability": "view",
      "type": "function"
    },
    {
      "constant": true,
      "inputs": [],
      "name": "owner",
      "outputs": [
        {
          "name": "",
          "type": "address"
        }
      ],
      "payable": false,
      "stateMutability": "view",
      "type": "function"
    },
    {
      "constant": true,
      "inputs": [],
      "name": "symbol",
      "outputs": [
        {
          "name": "",
          "type": "string"
        }
      ],
      "payable": false,
      "stateMutability": "view",
      "type": "function"
    },
    {
      "constant": true,
      "inputs": [],
      "name": "MAX_UINT",
      "outputs": [
        {
          "name": "",
          "type": "uint256"
        }
      ],
      "payable": false,
      "stateMutability": "view",
      "type": "function"
    },
    {
      "constant": false,
      "inputs": [
        {
          "name": "newOwner",
          "type": "address"
        }
      ],
      "name": "transferOwnership",
      "outputs": [],
      "payable": false,
      "stateMutability": "nonpayable",
      "type": "function"
    },
    {
      "inputs": [],
      "payable": false,
      "stateMutability": "nonpayable",
      "type": "constructor"
    },
    {
      "payable": true,
      "stateMutability": "payable",
      "type": "fallback"
    },
    {
      "anonymous": false,
      "inputs": [
        {
          "indexed": false,
          "name": "crowdsaleName",
          "type": "string"
        },
        {
          "indexed": true,
          "name": "open",
          "type": "bool"
        },
        {
          "indexed": false,
          "name": "initialTokenSupply",
          "type": "uint256"
        },
        {
          "indexed": false,
          "name": "exchangeRate",
          "type": "uint256"
        },
        {
          "indexed": true,
          "name": "startTime",
          "type": "uint256"
        },
        {
          "indexed": false,
          "name": "endTime",
          "type": "uint256"
        }
      ],
      "name": "CrowdsaleDeployed",
      "type": "event"
    },
    {
      "anonymous": false,
      "inputs": [
        {
          "indexed": false,
          "name": "previousName",
          "type": "string"
        },
        {
          "indexed": false,
          "name": "newName",
          "type": "string"
        },
        {
          "indexed": true,
          "name": "time",
          "type": "uint256"
        }
      ],
      "name": "TokenNameChanged",
      "type": "event"
    },
    {
      "anonymous": false,
      "inputs": [
        {
          "indexed": false,
          "name": "previousSymbol",
          "type": "string"
        },
        {
          "indexed": false,
          "name": "newSymbol",
          "type": "string"
        },
        {
          "indexed": true,
          "name": "time",
          "type": "uint256"
        }
      ],
      "name": "TokenSymbolChanged",
      "type": "event"
    },
    {
      "anonymous": false,
      "inputs": [
        {
          "indexed": true,
          "name": "_from",
          "type": "address"
        },
        {
          "indexed": true,
          "name": "_to",
          "type": "address"
        },
        {
          "indexed": false,
          "name": "_value",
          "type": "uint256"
        }
      ],
      "name": "Transfer",
      "type": "event"
    },
    {
      "anonymous": false,
      "inputs": [
        {
          "indexed": true,
          "name": "_owner",
          "type": "address"
        },
        {
          "indexed": true,
          "name": "_spender",
          "type": "address"
        },
        {
          "indexed": false,
          "name": "_value",
          "type": "uint256"
        }
      ],
      "name": "Approval",
      "type": "event"
    },
    {
      "anonymous": false,
      "inputs": [
        {
          "indexed": true,
          "name": "previousOwner",
          "type": "address"
        },
        {
          "indexed": true,
          "name": "newOwner",
          "type": "address"
        }
      ],
      "name": "OwnershipTransferred",
      "type": "event"
    },
    {
      "constant": true,
      "inputs": [
        {
          "name": "_owner",
          "type": "address"
        }
      ],
      "name": "balanceOf",
      "outputs": [
        {
          "name": "balance",
          "type": "uint256"
        }
      ],
      "payable": false,
      "stateMutability": "view",
      "type": "function"
    },
    {
      "constant": false,
      "inputs": [
        {
          "name": "_to",
          "type": "address"
        },
        {
          "name": "_value",
          "type": "uint256"
        }
      ],
      "name": "transfer",
      "outputs": [
        {
          "name": "success",
          "type": "bool"
        }
      ],
      "payable": false,
      "stateMutability": "nonpayable",
      "type": "function"
    },
    {
      "constant": false,
      "inputs": [
        {
          "name": "_from",
          "type": "address"
        },
        {
          "name": "_to",
          "type": "address"
        },
        {
          "name": "_value",
          "type": "uint256"
        }
      ],
      "name": "transferFrom",
      "outputs": [
        {
          "name": "success",
          "type": "bool"
        }
      ],
      "payable": false,
      "stateMutability": "nonpayable",
      "type": "function"
    },
    {
      "constant": false,
      "inputs": [
        {
          "name": "_spender",
          "type": "address"
        },
        {
          "name": "_value",
          "type": "uint256"
        }
      ],
      "name": "approve",
      "outputs": [
        {
          "name": "success",
          "type": "bool"
        }
      ],
      "payable": false,
      "stateMutability": "nonpayable",
      "type": "function"
    },
    {
      "constant": true,
      "inputs": [
        {
          "name": "_owner",
          "type": "address"
        },
        {
          "name": "_spender",
          "type": "address"
        }
      ],
      "name": "allowance",
      "outputs": [
        {
          "name": "remaining",
          "type": "uint256"
        }
      ],
      "payable": false,
      "stateMutability": "view",
      "type": "function"
    },
    {
      "constant": false,
      "inputs": [
        {
          "name": "newName",
          "type": "string"
        }
      ],
      "name": "changeTokenName",
      "outputs": [],
      "payable": false,
      "stateMutability": "nonpayable",
      "type": "function"
    },
    {
      "constant": false,
      "inputs": [
        {
          "name": "newSymbol",
          "type": "string"
        }
      ],
      "name": "changeTokenSymbol",
      "outputs": [],
      "payable": false,
      "stateMutability": "nonpayable",
      "type": "function"
    },
    {
      "constant": false,
      "inputs": [
        {
          "name": "crowdsaleName",
          "type": "string"
        },
        {
          "name": "open",
          "type": "bool"
        },
        {
          "name": "initialTokenSupply",
          "type": "uint256"
        },
        {
          "name": "exchangeRate",
          "type": "uint256"
        },
        {
          "name": "startTime",
          "type": "uint256"
        },
        {
          "name": "endTime",
          "type": "uint256"
        }
      ],
      "name": "createCrowdsale",
      "outputs": [],
      "payable": false,
      "stateMutability": "nonpayable",
      "type": "function"
    },
    {
      "constant": false,
      "inputs": [
        {
          "name": "crowdsaleName",
          "type": "string"
        }
      ],
      "name": "openCrowdsale",
      "outputs": [
        {
          "name": "success",
          "type": "bool"
        }
      ],
      "payable": false,
      "stateMutability": "nonpayable",
      "type": "function"
    },
    {
      "constant": false,
      "inputs": [
        {
          "name": "crowdsaleName",
          "type": "string"
        }
      ],
      "name": "closeCrowdsale",
      "outputs": [
        {
          "name": "success",
          "type": "bool"
        }
      ],
      "payable": false,
      "stateMutability": "nonpayable",
      "type": "function"
    },
    {
      "constant": false,
      "inputs": [
        {
          "name": "crowdsaleName",
          "type": "string"
        },
        {
          "name": "tokens",
          "type": "uint256"
        }
      ],
      "name": "crowdsaleAddTokens",
      "outputs": [
        {
          "name": "success",
          "type": "bool"
        }
      ],
      "payable": false,
      "stateMutability": "nonpayable",
      "type": "function"
    },
    {
      "constant": false,
      "inputs": [
        {
          "name": "crowdsaleName",
          "type": "string"
        },
        {
          "name": "tokens",
          "type": "uint256"
        }
      ],
      "name": "crowdsaleRemoveTokens",
      "outputs": [
        {
          "name": "success",
          "type": "bool"
        }
      ],
      "payable": false,
      "stateMutability": "nonpayable",
      "type": "function"
    },
    {
      "constant": false,
      "inputs": [
        {
          "name": "crowdsaleName",
          "type": "string"
        },
        {
          "name": "newExchangeRate",
          "type": "uint256"
        }
      ],
      "name": "crowdsaleUpdateExchangeRate",
      "outputs": [
        {
          "name": "success",
          "type": "bool"
        }
      ],
      "payable": false,
      "stateMutability": "nonpayable",
      "type": "function"
    },
    {
      "constant": false,
      "inputs": [
        {
          "name": "crowdsaleName",
          "type": "string"
        },
        {
          "name": "beneficiary",
          "type": "address"
        }
      ],
      "name": "crowdsalePurchase",
      "outputs": [
        {
          "name": "success",
          "type": "bool"
        }
      ],
      "payable": true,
      "stateMutability": "payable",
      "type": "function"
    },
    {
      "constant": true,
      "inputs": [
        {
          "name": "crowdsaleName",
          "type": "string"
        }
      ],
      "name": "getCrowdsaleDetails",
      "outputs": [
        {
          "name": "name_",
          "type": "string"
        },
        {
          "name": "open",
          "type": "bool"
        },
        {
          "name": "initialTokenSupply",
          "type": "uint256"
        },
        {
          "name": "tokenBalance",
          "type": "uint256"
        },
        {
          "name": "exchangeRate",
          "type": "uint256"
        },
        {
          "name": "startTime",
          "type": "uint256"
        },
        {
          "name": "endTime",
          "type": "uint256"
        }
      ],
      "payable": false,
      "stateMutability": "view",
      "type": "function"
    },
    {
      "constant": true,
      "inputs": [
        {
          "name": "crowdsaleName",
          "type": "string"
        }
      ],
      "name": "crowdsaleTokenBalance",
      "outputs": [
        {
          "name": "",
          "type": "uint256"
        }
      ],
      "payable": false,
      "stateMutability": "view",
      "type": "function"
    },
    {
      "constant": true,
      "inputs": [
        {
          "name": "crowdsaleName",
          "type": "string"
        }
      ],
      "name": "crowdsaleIsOpen",
      "outputs": [
        {
          "name": "",
          "type": "bool"
        }
      ],
      "payable": false,
      "stateMutability": "view",
      "type": "function"
    }
  ],
  "bytecode": "0x606060405234156200001057600080fd5b336000806101000a81548173ffffffffffffffffffffffffffffffffffffffff021916908373ffffffffffffffffffffffffffffffffffffffff1602179055506040805190810160405280600381526020017f544f4b0000000000000000000000000000000000000000000000000000000000815250600190805190602001906200009d929190620001de565b506040805190810160405280600581526020017f546f6b656e00000000000000000000000000000000000000000000000000000081525060029080519060200190620000eb929190620001de565b506012600360006101000a81548160ff021916908360ff160217905550600360009054906101000a900460ff1660ff16600a0a633b9aca0002600481905550600454600560003373ffffffffffffffffffffffffffffffffffffffff1673ffffffffffffffffffffffffffffffffffffffff168152602001908152602001600020819055503373ffffffffffffffffffffffffffffffffffffffff16600073ffffffffffffffffffffffffffffffffffffffff167fddf252ad1be2c89b69c2b068fc378daa952ba7f163c4a11628f55a4df523b3ef6004546040518082815260200191505060405180910390a36200028d565b828054600181600116156101000203166002900490600052602060002090601f016020900481019282601f106200022157805160ff191683800117855562000252565b8280016001018555821562000252579182015b828111156200025157825182559160200191906001019062000234565b5b50905062000261919062000265565b5090565b6200028a91905b80821115620002865760008160009055506001016200026c565b5090565b90565b6132b9806200029d6000396000f30060606040526004361061013e576000357c0100000000000000000000000000000000000000000000000000000000900463ffffffff16806306fdde0314610143578063095ea7b3146101d157806318160ddd1461022b57806323b872dd1461025457806323b99ac8146102cd578063289e423e1461034b578063313ce567146103d7578063458f9c0c146104065780635f5b118f1461048457806364449cf0146104f557806370a08231146105f95780637f80fd7014610646578063808129f3146106cf5780638da5cb5b1461074d57806394701b0d146107a257806395d89b4114610817578063a9059cbb146108a5578063b0018bfc146108ff578063c6d3ab9d1461095c578063cfaaba22146109b9578063dd62ed3e14610a2e578063de2a216514610a9a578063e5b5019a14610b0f578063f2fde38b14610b38575b600080fd5b341561014e57600080fd5b610156610b71565b6040518080602001828103825283818151815260200191508051906020019080838360005b8381101561019657808201518184015260208101905061017b565b50505050905090810190601f1680156101c35780820380516001836020036101000a031916815260200191505b509250505060405180910390f35b34156101dc57600080fd5b610211600480803573ffffffffffffffffffffffffffffffffffffffff16906020019091908035906020019091905050610c0f565b604051808215151515815260200191505060405180910390f35b341561023657600080fd5b61023e610d01565b6040518082815260200191505060405180910390f35b341561025f57600080fd5b6102b3600480803573ffffffffffffffffffffffffffffffffffffffff1690602001909190803573ffffffffffffffffffffffffffffffffffffffff16906020019091908035906020019091905050610d07565b604051808215151515815260200191505060405180910390f35b34156102d857600080fd5b610331600480803590602001908201803590602001908080601f01602080910402602001604051908101604052809392919081815260200183838082843782019150505050505091908035906020019091905050610fb2565b604051808215151515815260200191505060405180910390f35b341561035657600080fd5b6103d5600480803590602001908201803590602001908080601f016020809104026020016040519081016040528093929190818152602001838380828437820191505050505050919080351515906020019091908035906020019091908035906020019091908035906020019091908035906020019091905050611363565b005b34156103e257600080fd5b6103ea611797565b604051808260ff1660ff16815260200191505060405180910390f35b341561041157600080fd5b61046a600480803590602001908201803590602001908080601f016020809104026020016040519081016040528093929190818152602001838380828437820191505050505050919080359060200190919050506117aa565b604051808215151515815260200191505060405180910390f35b341561048f57600080fd5b6104df600480803590602001908201803590602001908080601f01602080910402602001604051908101604052809392919081815260200183838082843782019150505050505091905050611901565b6040518082815260200191505060405180910390f35b341561050057600080fd5b610550600480803590602001908201803590602001908080601f016020809104026020016040519081016040528093929190818152602001838380828437820191505050505050919050506119f5565b604051808060200188151515158152602001878152602001868152602001858152602001848152602001838152602001828103825289818151815260200191508051906020019080838360005b838110156105b857808201518184015260208101905061059d565b50505050905090810190601f1680156105e55780820380516001836020036101000a031916815260200191505b509850505050505050505060405180910390f35b341561060457600080fd5b610630600480803573ffffffffffffffffffffffffffffffffffffffff16906020019091905050611d44565b6040518082815260200191505060405180910390f35b6106b5600480803590602001908201803590602001908080601f0160208091040260200160405190810160405280939291908181526020018383808284378201915050505050509190803573ffffffffffffffffffffffffffffffffffffffff16906020019091905050611d8d565b604051808215151515815260200191505060405180910390f35b34156106da57600080fd5b610733600480803590602001908201803590602001908080601f0160208091040260200160405190810160405280939291908181526020018383808284378201915050505050509190803590602001909190505061209c565b604051808215151515815260200191505060405180910390f35b341561075857600080fd5b61076061243f565b604051808273ffffffffffffffffffffffffffffffffffffffff1673ffffffffffffffffffffffffffffffffffffffff16815260200191505060405180910390f35b34156107ad57600080fd5b6107fd600480803590602001908201803590602001908080601f01602080910402602001604051908101604052809392919081815260200183838082843782019150505050505091905050612464565b604051808215151515815260200191505060405180910390f35b341561082257600080fd5b61082a6125ce565b6040518080602001828103825283818151815260200191508051906020019080838360005b8381101561086a57808201518184015260208101905061084f565b50505050905090810190601f1680156108975780820380516001836020036101000a031916815260200191505b509250505060405180910390f35b34156108b057600080fd5b6108e5600480803573ffffffffffffffffffffffffffffffffffffffff1690602001909190803590602001909190505061266c565b604051808215151515815260200191505060405180910390f35b341561090a57600080fd5b61095a600480803590602001908201803590602001908080601f01602080910402602001604051908101604052809392919081815260200183838082843782019150505050505091905050612807565b005b341561096757600080fd5b6109b7600480803590602001908201803590602001908080601f01602080910402602001604051908101604052809392919081815260200183838082843782019150505050505091905050612a3c565b005b34156109c457600080fd5b610a14600480803590602001908201803590602001908080601f01602080910402602001604051908101604052809392919081815260200183838082843782019150505050505091905050612c71565b604051808215151515815260200191505060405180910390f35b3415610a3957600080fd5b610a84600480803573ffffffffffffffffffffffffffffffffffffffff1690602001909190803573ffffffffffffffffffffffffffffffffffffffff16906020019091905050612df8565b6040518082815260200191505060405180910390f35b3415610aa557600080fd5b610af5600480803590602001908201803590602001908080601f01602080910402602001604051908101604052809392919081815260200183838082843782019150505050505091905050612e7f565b604051808215151515815260200191505060405180910390f35b3415610b1a57600080fd5b610b22612fe9565b6040518082815260200191505060405180910390f35b3415610b4357600080fd5b610b6f600480803573ffffffffffffffffffffffffffffffffffffffff1690602001909190505061300d565b005b60028054600181600116156101000203166002900480601f016020809104026020016040519081016040528092919081815260200182805460018160011615610100020316600290048015610c075780601f10610bdc57610100808354040283529160200191610c07565b820191906000526020600020905b815481529060010190602001808311610bea57829003601f168201915b505050505081565b600081600660003373ffffffffffffffffffffffffffffffffffffffff1673ffffffffffffffffffffffffffffffffffffffff16815260200190815260200160002060008573ffffffffffffffffffffffffffffffffffffffff1673ffffffffffffffffffffffffffffffffffffffff168152602001908152602001600020819055508273ffffffffffffffffffffffffffffffffffffffff163373ffffffffffffffffffffffffffffffffffffffff167f8c5be1e5ebec7d5bd14f71427d1e84f3dd0314c0f7b2291e5b200ac8c7c3b925846040518082815260200191505060405180910390a36001905092915050565b60045481565b6000610d5b82600560008773ffffffffffffffffffffffffffffffffffffffff1673ffffffffffffffffffffffffffffffffffffffff1681526020019081526020016000205461316290919063ffffffff16565b600560008673ffffffffffffffffffffffffffffffffffffffff1673ffffffffffffffffffffffffffffffffffffffff16815260200190815260200160002081905550610e2d82600660008773ffffffffffffffffffffffffffffffffffffffff1673ffffffffffffffffffffffffffffffffffffffff16815260200190815260200160002060003373ffffffffffffffffffffffffffffffffffffffff1673ffffffffffffffffffffffffffffffffffffffff1681526020019081526020016000205461316290919063ffffffff16565b600660008673ffffffffffffffffffffffffffffffffffffffff1673ffffffffffffffffffffffffffffffffffffffff16815260200190815260200160002060003373ffffffffffffffffffffffffffffffffffffffff1673ffffffffffffffffffffffffffffffffffffffff16815260200190815260200160002081905550610eff82600560008673ffffffffffffffffffffffffffffffffffffffff1673ffffffffffffffffffffffffffffffffffffffff1681526020019081526020016000205461317b90919063ffffffff16565b600560008573ffffffffffffffffffffffffffffffffffffffff1673ffffffffffffffffffffffffffffffffffffffff168152602001908152602001600020819055508273ffffffffffffffffffffffffffffffffffffffff168473ffffffffffffffffffffffffffffffffffffffff167fddf252ad1be2c89b69c2b068fc378daa952ba7f163c4a11628f55a4df523b3ef846040518082815260200191505060405180910390a3600190509392505050565b60008060009054906101000a900473ffffffffffffffffffffffffffffffffffffffff1673ffffffffffffffffffffffffffffffffffffffff163373ffffffffffffffffffffffffffffffffffffffff1614151561100f57600080fd5b60006007846040518082805190602001908083835b6020831015156110495780518252602082019150602081019050602083039250611024565b6001836020036101000a03801982511681845116808217855250505050505090500191505090815260200160405180910390206005015411151561108c57600080fd5b816007846040518082805190602001908083835b6020831015156110c557805182526020820191506020810190506020830392506110a0565b6001836020036101000a0380198251168184511680821785525050505050509050019150509081526020016040518091039020600201541015151561110957600080fd5b61117c82600560008060009054906101000a900473ffffffffffffffffffffffffffffffffffffffff1673ffffffffffffffffffffffffffffffffffffffff1673ffffffffffffffffffffffffffffffffffffffff1681526020019081526020016000205461317b90919063ffffffff16565b600560008060009054906101000a900473ffffffffffffffffffffffffffffffffffffffff1673ffffffffffffffffffffffffffffffffffffffff1673ffffffffffffffffffffffffffffffffffffffff16815260200190815260200160002081905550611261826007856040518082805190602001908083835b60208310151561121c57805182526020820191506020810190506020830392506111f7565b6001836020036101000a03801982511681845116808217855250505050505090500191505090815260200160405180910390206002015461316290919063ffffffff16565b6007846040518082805190602001908083835b6020831015156112995780518252602082019150602081019050602083039250611274565b6001836020036101000a0380198251168184511680821785525050505050509050019150509081526020016040518091039020600201819055506000809054906101000a900473ffffffffffffffffffffffffffffffffffffffff1673ffffffffffffffffffffffffffffffffffffffff163073ffffffffffffffffffffffffffffffffffffffff167fddf252ad1be2c89b69c2b068fc378daa952ba7f163c4a11628f55a4df523b3ef846040518082815260200191505060405180910390a36001905092915050565b6000809054906101000a900473ffffffffffffffffffffffffffffffffffffffff1673ffffffffffffffffffffffffffffffffffffffff163373ffffffffffffffffffffffffffffffffffffffff161415156113be57600080fd5b60008411801561142e5750600560008060009054906101000a900473ffffffffffffffffffffffffffffffffffffffff1673ffffffffffffffffffffffffffffffffffffffff1673ffffffffffffffffffffffffffffffffffffffff168152602001908152602001600020548411155b151561143957600080fd5b6000865111151561144957600080fd5b60006007876040518082805190602001908083835b602083101515611483578051825260208201915060208101905060208303925061145e565b6001836020036101000a0380198251168184511680821785525050505050509050019150509081526020016040518091039020600501541415156114c657600080fd5b6000831115156114d557600080fd5b6000811415611502577fffffffffffffffffffffffffffffffffffffffffffffffffffffffffffffffff90505b818111151561151057600080fd5b60c0604051908101604052808615158152602001858152602001858152602001848152602001838152602001828152506007876040518082805190602001908083835b6020831015156115785780518252602082019150602081019050602083039250611553565b6001836020036101000a038019825116818451168082178552505050505050905001915050908152602001604051809103902060008201518160000160006101000a81548160ff0219169083151502179055506020820151816001015560408201518160020155606082015181600301556080820151816004015560a0820151816005015590505061167384600560008060009054906101000a900473ffffffffffffffffffffffffffffffffffffffff1673ffffffffffffffffffffffffffffffffffffffff1673ffffffffffffffffffffffffffffffffffffffff1681526020019081526020016000205461316290919063ffffffff16565b600560008060009054906101000a900473ffffffffffffffffffffffffffffffffffffffff1673ffffffffffffffffffffffffffffffffffffffff1673ffffffffffffffffffffffffffffffffffffffff16815260200190815260200160002081905550818515157fffdd7481c79fd409e57d5a8224bc6b3ef59d1b0c6ec28dc734996c379d497b2b888787866040518080602001858152602001848152602001838152602001828103825286818151815260200191508051906020019080838360005b83811015611752578082015181840152602081019050611737565b50505050905090810190601f16801561177f5780820380516001836020036101000a031916815260200191505b509550505050505060405180910390a3505050505050565b600360009054906101000a900460ff1681565b60008060009054906101000a900473ffffffffffffffffffffffffffffffffffffffff1673ffffffffffffffffffffffffffffffffffffffff163373ffffffffffffffffffffffffffffffffffffffff1614151561180757600080fd5b60006007846040518082805190602001908083835b602083101515611841578051825260208201915060208101905060208303925061181c565b6001836020036101000a03801982511681845116808217855250505050505090500191505090815260200160405180910390206005015411151561188457600080fd5b816007846040518082805190602001908083835b6020831015156118bd5780518252602082019150602081019050602083039250611898565b6001836020036101000a0380198251168184511680821785525050505050509050019150509081526020016040518091039020600301819055506001905092915050565b6000806007836040518082805190602001908083835b60208310151561193c5780518252602082019150602081019050602083039250611917565b6001836020036101000a03801982511681845116808217855250505050505090500191505090815260200160405180910390206005015411151561197f57600080fd5b6007826040518082805190602001908083835b6020831015156119b75780518252602082019150602081019050602083039250611992565b6001836020036101000a0380198251168184511680821785525050505050509050019150509081526020016040518091039020600201549050919050565b6119fd6131d4565b60008060008060008060006007896040518082805190602001908083835b602083101515611a405780518252602082019150602081019050602083039250611a1b565b6001836020036101000a038019825116818451168082178552505050505050905001915050908152602001604051809103902060050154111515611a8357600080fd5b876007896040518082805190602001908083835b602083101515611abc5780518252602082019150602081019050602083039250611a97565b6001836020036101000a038019825116818451168082178552505050505050905001915050908152602001604051809103902060000160009054906101000a900460ff1660078a6040518082805190602001908083835b602083101515611b385780518252602082019150602081019050602083039250611b13565b6001836020036101000a03801982511681845116808217855250505050505090500191505090815260200160405180910390206001015460078b6040518082805190602001908083835b602083101515611ba75780518252602082019150602081019050602083039250611b82565b6001836020036101000a03801982511681845116808217855250505050505090500191505090815260200160405180910390206002015460078c6040518082805190602001908083835b602083101515611c165780518252602082019150602081019050602083039250611bf1565b6001836020036101000a03801982511681845116808217855250505050505090500191505090815260200160405180910390206003015460078d6040518082805190602001908083835b602083101515611c855780518252602082019150602081019050602083039250611c60565b6001836020036101000a03801982511681845116808217855250505050505090500191505090815260200160405180910390206004015460078e6040518082805190602001908083835b602083101515611cf45780518252602082019150602081019050602083039250611ccf565b6001836020036101000a0380198251168184511680821785525050505050509050019150509081526020016040518091039020600501549650965096509650965096509650919395979092949650565b6000600560008373ffffffffffffffffffffffffffffffffffffffff1673ffffffffffffffffffffffffffffffffffffffff168152602001908152602001600020549050919050565b600080611d9984612c71565b1515611da457600080fd5b611e25346007866040518082805190602001908083835b602083101515611de05780518252602082019150602081019050602083039250611dbb565b6001836020036101000a03801982511681845116808217855250505050505090500191505090815260200160405180910390206003015461319990919063ffffffff16565b9050806007856040518082805190602001908083835b602083101515611e605780518252602082019150602081019050602083039250611e3b565b6001836020036101000a03801982511681845116808217855250505050505090500191505090815260200160405180910390206002015410151515611ea457600080fd5b611f25816007866040518082805190602001908083835b602083101515611ee05780518252602082019150602081019050602083039250611ebb565b6001836020036101000a03801982511681845116808217855250505050505090500191505090815260200160405180910390206002015461316290919063ffffffff16565b6007856040518082805190602001908083835b602083101515611f5d5780518252602082019150602081019050602083039250611f38565b6001836020036101000a038019825116818451168082178552505050505050905001915050908152602001604051809103902060020181905550611fe981600560008673ffffffffffffffffffffffffffffffffffffffff1673ffffffffffffffffffffffffffffffffffffffff1681526020019081526020016000205461317b90919063ffffffff16565b600560008573ffffffffffffffffffffffffffffffffffffffff1673ffffffffffffffffffffffffffffffffffffffff168152602001908152602001600020819055508273ffffffffffffffffffffffffffffffffffffffff163073ffffffffffffffffffffffffffffffffffffffff167fddf252ad1be2c89b69c2b068fc378daa952ba7f163c4a11628f55a4df523b3ef836040518082815260200191505060405180910390a3600191505092915050565b60008060009054906101000a900473ffffffffffffffffffffffffffffffffffffffff1673ffffffffffffffffffffffffffffffffffffffff163373ffffffffffffffffffffffffffffffffffffffff161415156120f957600080fd5b60006007846040518082805190602001908083835b602083101515612133578051825260208201915060208101905060208303925061210e565b6001836020036101000a03801982511681845116808217855250505050505090500191505090815260200160405180910390206005015411151561217657600080fd5b81600560008060009054906101000a900473ffffffffffffffffffffffffffffffffffffffff1673ffffffffffffffffffffffffffffffffffffffff1673ffffffffffffffffffffffffffffffffffffffff16815260200190815260200160002054101515156121e557600080fd5b61225882600560008060009054906101000a900473ffffffffffffffffffffffffffffffffffffffff1673ffffffffffffffffffffffffffffffffffffffff1673ffffffffffffffffffffffffffffffffffffffff1681526020019081526020016000205461316290919063ffffffff16565b600560008060009054906101000a900473ffffffffffffffffffffffffffffffffffffffff1673ffffffffffffffffffffffffffffffffffffffff1673ffffffffffffffffffffffffffffffffffffffff1681526020019081526020016000208190555061233d826007856040518082805190602001908083835b6020831015156122f857805182526020820191506020810190506020830392506122d3565b6001836020036101000a03801982511681845116808217855250505050505090500191505090815260200160405180910390206002015461317b90919063ffffffff16565b6007846040518082805190602001908083835b6020831015156123755780518252602082019150602081019050602083039250612350565b6001836020036101000a0380198251168184511680821785525050505050509050019150509081526020016040518091039020600201819055503073ffffffffffffffffffffffffffffffffffffffff166000809054906101000a900473ffffffffffffffffffffffffffffffffffffffff1673ffffffffffffffffffffffffffffffffffffffff167fddf252ad1be2c89b69c2b068fc378daa952ba7f163c4a11628f55a4df523b3ef846040518082815260200191505060405180910390a36001905092915050565b6000809054906101000a900473ffffffffffffffffffffffffffffffffffffffff1681565b60008060009054906101000a900473ffffffffffffffffffffffffffffffffffffffff1673ffffffffffffffffffffffffffffffffffffffff163373ffffffffffffffffffffffffffffffffffffffff161415156124c157600080fd5b60006007836040518082805190602001908083835b6020831015156124fb57805182526020820191506020810190506020830392506124d6565b6001836020036101000a03801982511681845116808217855250505050505090500191505090815260200160405180910390206005015411151561253e57600080fd5b60016007836040518082805190602001908083835b6020831015156125785780518252602082019150602081019050602083039250612553565b6001836020036101000a038019825116818451168082178552505050505050905001915050908152602001604051809103902060000160006101000a81548160ff02191690831515021790555060019050919050565b60018054600181600116156101000203166002900480601f0160208091040260200160405190810160405280929190818152602001828054600181600116156101000203166002900480156126645780601f1061263957610100808354040283529160200191612664565b820191906000526020600020905b81548152906001019060200180831161264757829003601f168201915b505050505081565b60006126c082600560003373ffffffffffffffffffffffffffffffffffffffff1673ffffffffffffffffffffffffffffffffffffffff1681526020019081526020016000205461316290919063ffffffff16565b600560003373ffffffffffffffffffffffffffffffffffffffff1673ffffffffffffffffffffffffffffffffffffffff1681526020019081526020016000208190555061275582600560008673ffffffffffffffffffffffffffffffffffffffff1673ffffffffffffffffffffffffffffffffffffffff1681526020019081526020016000205461317b90919063ffffffff16565b600560008573ffffffffffffffffffffffffffffffffffffffff1673ffffffffffffffffffffffffffffffffffffffff168152602001908152602001600020819055508273ffffffffffffffffffffffffffffffffffffffff163373ffffffffffffffffffffffffffffffffffffffff167fddf252ad1be2c89b69c2b068fc378daa952ba7f163c4a11628f55a4df523b3ef846040518082815260200191505060405180910390a36001905092915050565b61280f6131d4565b6000809054906101000a900473ffffffffffffffffffffffffffffffffffffffff1673ffffffffffffffffffffffffffffffffffffffff163373ffffffffffffffffffffffffffffffffffffffff1614151561286a57600080fd5b6000825111151561287a57600080fd5b60028054600181600116156101000203166002900480601f0160208091040260200160405190810160405280929190818152602001828054600181600116156101000203166002900480156129105780601f106128e557610100808354040283529160200191612910565b820191906000526020600020905b8154815290600101906020018083116128f357829003601f168201915b50505050509050816002908051906020019061292d9291906131e8565b50427f5e4a7645eb7a82bf9cf2cd971c13f78345a28f1ae271fee134afba905bf81ec68284604051808060200180602001838103835285818151815260200191508051906020019080838360005b8381101561299657808201518184015260208101905061297b565b50505050905090810190601f1680156129c35780820380516001836020036101000a031916815260200191505b50838103825284818151815260200191508051906020019080838360005b838110156129fc5780820151818401526020810190506129e1565b50505050905090810190601f168015612a295780820380516001836020036101000a031916815260200191505b5094505050505060405180910390a25050565b612a446131d4565b6000809054906101000a900473ffffffffffffffffffffffffffffffffffffffff1673ffffffffffffffffffffffffffffffffffffffff163373ffffffffffffffffffffffffffffffffffffffff16141515612a9f57600080fd5b60008251111515612aaf57600080fd5b60018054600181600116156101000203166002900480601f016020809104026020016040519081016040528092919081815260200182805460018160011615610100020316600290048015612b455780601f10612b1a57610100808354040283529160200191612b45565b820191906000526020600020905b815481529060010190602001808311612b2857829003601f168201915b505050505090508160019080519060200190612b629291906131e8565b50427f315f362b1a29ed0ad33cbe495eb28fad6e949138fd9ec0eb9bad9c9ee1733dbe8284604051808060200180602001838103835285818151815260200191508051906020019080838360005b83811015612bcb578082015181840152602081019050612bb0565b50505050905090810190601f168015612bf85780820380516001836020036101000a031916815260200191505b50838103825284818151815260200191508051906020019080838360005b83811015612c31578082015181840152602081019050612c16565b50505050905090810190601f168015612c5e5780820380516001836020036101000a031916815260200191505b5094505050505060405180910390a25050565b600080600190506007836040518082805190602001908083835b602083101515612cb05780518252602082019150602081019050602083039250612c8b565b6001836020036101000a038019825116818451168082178552505050505050905001915050908152602001604051809103902060000160009054906101000a900460ff161580612d6d5750426007846040518082805190602001908083835b602083101515612d345780518252602082019150602081019050602083039250612d0f565b6001836020036101000a038019825116818451168082178552505050505050905001915050908152602001604051809103902060040154115b80612de55750426007846040518082805190602001908083835b602083101515612dac5780518252602082019150602081019050602083039250612d87565b6001836020036101000a038019825116818451168082178552505050505050905001915050908152602001604051809103902060050154105b15612def57600090505b80915050919050565b6000600660008473ffffffffffffffffffffffffffffffffffffffff1673ffffffffffffffffffffffffffffffffffffffff16815260200190815260200160002060008373ffffffffffffffffffffffffffffffffffffffff1673ffffffffffffffffffffffffffffffffffffffff16815260200190815260200160002054905092915050565b60008060009054906101000a900473ffffffffffffffffffffffffffffffffffffffff1673ffffffffffffffffffffffffffffffffffffffff163373ffffffffffffffffffffffffffffffffffffffff16141515612edc57600080fd5b60006007836040518082805190602001908083835b602083101515612f165780518252602082019150602081019050602083039250612ef1565b6001836020036101000a038019825116818451168082178552505050505050905001915050908152602001604051809103902060050154111515612f5957600080fd5b60006007836040518082805190602001908083835b602083101515612f935780518252602082019150602081019050602083039250612f6e565b6001836020036101000a038019825116818451168082178552505050505050905001915050908152602001604051809103902060000160006101000a81548160ff02191690831515021790555060019050919050565b7fffffffffffffffffffffffffffffffffffffffffffffffffffffffffffffffff81565b6000809054906101000a900473ffffffffffffffffffffffffffffffffffffffff1673ffffffffffffffffffffffffffffffffffffffff163373ffffffffffffffffffffffffffffffffffffffff1614151561306857600080fd5b600073ffffffffffffffffffffffffffffffffffffffff168173ffffffffffffffffffffffffffffffffffffffff16141515156130a457600080fd5b8073ffffffffffffffffffffffffffffffffffffffff166000809054906101000a900473ffffffffffffffffffffffffffffffffffffffff1673ffffffffffffffffffffffffffffffffffffffff167f8be0079c531659141344cd1fd0a4f28419497f9722a3daafe3b4186f6b6457e060405160405180910390a3806000806101000a81548173ffffffffffffffffffffffffffffffffffffffff021916908373ffffffffffffffffffffffffffffffffffffffff16021790555050565b600082821115151561317057fe5b818303905092915050565b600080828401905083811015151561318f57fe5b8091505092915050565b60008060008414156131ae57600091506131cd565b82840290508284828115156131bf57fe5b041415156131c957fe5b8091505b5092915050565b602060405190810160405280600081525090565b828054600181600116156101000203166002900490600052602060002090601f016020900481019282601f1061322957805160ff1916838001178555613257565b82800160010185558215613257579182015b8281111561325657825182559160200191906001019061323b565b5b5090506132649190613268565b5090565b61328a91905b8082111561328657600081600090555060010161326e565b5090565b905600a165627a7a7230582068702230cb92f6a7c6a7ab847076a9d50f030580de5c4e45600d0d988245dab60029",
  "source": "pragma solidity ^0.4.18;\n\nimport 'zeppelin-solidity/contracts/math/SafeMath.sol';\nimport 'zeppelin-solidity/contracts/ownership/Ownable.sol';\n\n/**\n * Token\n *\n * @title A fixed supply ERC-20 token contract with crowdsale capability.\n * https://github.com/ethereum/EIPs/blob/master/EIPS/eip-20.md\n */\ncontract Token is Ownable {\n    using SafeMath for uint;\n    uint public constant MAX_UINT =\n        0xFFFFFFFFFFFFFFFFFFFFFFFFFFFFFFFFFFFFFFFFFFFFFFFFFFFFFFFFFFFFFFFF;\n\n    struct Crowdsale {\n        bool open;\n        uint initialTokenSupply;\n        uint tokenBalance;\n        uint exchangeRate;\n        uint startTime;\n        uint endTime;\n    }\n\n    event CrowdsaleDeployed(\n        string crowdsaleName,\n        bool indexed open,\n        uint initialTokenSupply,\n        uint exchangeRate,\n        uint indexed startTime,\n        uint endTime\n    );\n\n    event TokenNameChanged(\n        string previousName,\n        string newName,\n        uint indexed time\n    );\n\n    event TokenSymbolChanged(\n        string previousSymbol,\n        string newSymbol,\n        uint indexed time\n    );\n\n    event Transfer(\n        address indexed _from,\n        address indexed _to,\n        uint256 _value\n    );\n\n    event Approval(\n        address indexed _owner,\n        address indexed _spender,\n        uint256 _value\n    );\n\n    string public symbol;\n    string public name;\n    uint8 public decimals;\n    uint public totalSupply;\n\n    mapping(address => uint) balances;\n    mapping(address => mapping(address => uint)) allowed;\n    mapping(string => Crowdsale) crowdsales;\n\n    /**\n     * Constructs the Token contract and gives all of the supply to the address\n     *     that deployed it. The fixed supply is 1 billion tokens with up to 18\n     *     decimal places.\n     */\n    function Token() public {\n        symbol = 'TOK';\n        name = 'Token';\n        decimals = 18;\n        totalSupply = 1000000000 * 10**uint(decimals);\n        balances[msg.sender] = totalSupply;\n        Transfer(address(0), msg.sender, totalSupply);\n    }\n\n    /**\n     * @dev Fallback function\n     */\n    function() public payable { revert(); }\n\n    /**\n     * Gets the token balance of any wallet.\n     * @param _owner Wallet address of the returned token balance.\n     * @return The balance of tokens in the wallet.\n     */\n    function balanceOf(address _owner)\n        public\n        constant\n        returns (uint balance)\n    {\n        return balances[_owner];\n    }\n\n    /**\n     * Transfers tokens from the sender's wallet to the specified `_to` wallet.\n     * @param _to Address of the transfer's recipient.\n     * @param _value Number of tokens to transfer.\n     * @return True if the transfer succeeded.\n     */\n    function transfer(address _to, uint _value) public returns (bool success) {\n        balances[msg.sender] = balances[msg.sender].sub(_value);\n        balances[_to] = balances[_to].add(_value);\n        Transfer(msg.sender, _to, _value);\n        return true;\n    }\n\n    /**\n     * Transfer tokens from any wallet to the `_to` wallet. This only works if\n     *     the `_from` wallet has already allocated tokens for the caller keyset\n     *     using `approve`. From wallet must have sufficient balance to\n     *     transfer. Caller must have sufficient allowance to transfer.\n     * @param _from Wallet address that tokens are withdrawn from.\n     * @param _to Wallet address that tokens are deposited to.\n     * @param _value Number of tokens transacted.\n     * @return True if the transfer succeeded.\n     */\n    function transferFrom(address _from, address _to, uint _value)\n        public\n        returns (bool success)\n    {\n        balances[_from] = balances[_from].sub(_value);\n        allowed[_from][msg.sender] = allowed[_from][msg.sender].sub(_value);\n        balances[_to] = balances[_to].add(_value);\n        Transfer(_from, _to, _value);\n        return true;\n    }\n\n    /**\n     * Sender allows another wallet to `transferFrom` tokens from their wallet.\n     * @param _spender Address of `transferFrom` recipient.\n     * @param _value Number of tokens to `transferFrom`.\n     * @return True if the approval succeeded.\n     */\n    function approve(address _spender, uint _value)\n        public\n        returns (bool success)\n    {\n        allowed[msg.sender][_spender] = _value;\n        Approval(msg.sender, _spender, _value);\n        return true;\n    }\n\n    /**\n     * Gets the number of tokens that a `_owner` has approved for a _spender\n     *     to `transferFrom`.\n     * @param _owner Wallet address that tokens can be withdrawn from.\n     * @param _spender Wallet address that tokens can be deposited to.\n     * @return The number of tokens allowed to be transferred.\n     */\n    function allowance(address _owner, address _spender)\n        public\n        constant\n        returns (uint remaining)\n    {\n        return allowed[_owner][_spender];\n    }\n\n    /**\n     * Changes the token's name. Does not check for improper characters.\n     * @param newName String of the new name for the token.\n     */\n    function changeTokenName(string newName) public onlyOwner {\n        require(bytes(newName).length > 0);\n        string memory oldName = name;\n        name = newName;\n        TokenNameChanged(oldName, newName, now);\n    }\n\n    /**\n     * Changes the token's symbol. Does not check for improper characters.\n     * @param newSymbol String of the new symbol for the token. \n     */\n    function changeTokenSymbol(string newSymbol) public onlyOwner {\n        require(bytes(newSymbol).length > 0);\n        string memory oldSymbol = symbol;\n        symbol = newSymbol;\n        TokenSymbolChanged(oldSymbol, newSymbol, now);\n    }\n\n    /**\n     * Creates a crowdsale. Tokens are withdrawn from the owner's account and\n     *     the balance is kept track of by the `tokenBalance` of the crowdsale.\n     *     A crowdsale can be opened or closed at any time by the owner using\n     *     the `openCrowdsale` and `closeCrowdsale` methods. The `open`,\n     *     `startTime`, and `endTime` properties are checked when a purchase is\n     *     attempted. Crowdsales permanently exist in the `crowdsales` map. If\n     *     the `endTime` for a crowdsale in the map is `0` the ncrowdsale does\n     *     not exist.\n     * @param crowdsaleName String name of the crowdsale. Used as the\n     *     map key for a crowdsale struct instance in the `crowdsales` map.\n     *     A name can be used once and only once to initialize a crowdsale.\n     * @param open Boolean of openness; can be changed at any time by the owner.\n     * @param initialTokenSupply Number of tokens the crowdsale is deployed\n     *     with. This amount is a wei integer.\n     * @param exchangeRate Token wei to Ethereum wei ratio.\n     * @param startTime Unix epoch time in seconds for crowdsale start time.\n     * @param endTime Unix epoch time in seconds for crowdsale end time. Any\n     *     uint256 can be used to set this however passing `0` will cause the\n     *     value to be set to the maximum uint256. If `0` is not passed, the\n     *     value must be greater than `startTime`.\n     */\n    function createCrowdsale(\n        string crowdsaleName,\n        bool open,\n        uint initialTokenSupply,\n        uint exchangeRate,\n        uint startTime,\n        uint endTime\n    )\n        public\n        onlyOwner\n    {\n        require(\n            initialTokenSupply > 0 && initialTokenSupply <= balances[owner]\n        );\n        require(bytes(crowdsaleName).length > 0);\n        require(crowdsales[crowdsaleName].endTime == 0);\n        require(exchangeRate > 0);\n\n        if (endTime == 0) {\n            endTime = MAX_UINT;\n        }\n\n        require(endTime > startTime);\n\n        crowdsales[crowdsaleName] = Crowdsale({\n            open: open,\n            initialTokenSupply: initialTokenSupply,\n            tokenBalance: initialTokenSupply,\n            exchangeRate: exchangeRate,\n            startTime: startTime,\n            endTime: endTime\n        });\n\n        balances[owner] = balances[owner].sub(initialTokenSupply);\n\n        CrowdsaleDeployed(\n            crowdsaleName,\n            open,\n            initialTokenSupply,\n            exchangeRate,\n            startTime,\n            endTime\n        );\n    }\n\n    /**\n     * Owner can change the crowdsale's `open` property to true at any time.\n     *     Only works on deployed crowdsales.\n     * @param crowdsaleName String for the name of the crowdsale. Used as the\n     *     map key to find a crowdsale struct instance in the `crowdsales` map.\n     * @return True if the open succeeded.\n     */\n    function openCrowdsale(string crowdsaleName)\n        public\n        onlyOwner\n        returns (bool success)\n    {\n        require(crowdsales[crowdsaleName].endTime > 0);\n        crowdsales[crowdsaleName].open = true;\n        return true;\n    }\n    \n    /**\n     * Owner can change the crowdsale's `open` property to false at any time.\n     *     Only works on deployed crowdsales.\n     * @param crowdsaleName String for the name of the crowdsale. Used as the\n     *     map key to find a crowdsale struct instance in the `crowdsales` map.\n     * @return True if the close succeeded.\n     */\n    function closeCrowdsale(string crowdsaleName)\n        public\n        onlyOwner\n        returns (bool success)\n    {\n        require(crowdsales[crowdsaleName].endTime > 0);\n        crowdsales[crowdsaleName].open = false;\n        return true;\n    }\n\n    /**\n     * Owner can add tokens to the crowdsale after it is deployed. Owner must\n     *     have enough tokens in their balance for this method to succeed.\n     * @param crowdsaleName String for the name of the crowdsale. Used as the\n     *     map key to find a crowdsale struct instance in the `crowdsales` map.\n     * @param tokens Number of tokens to transfer from the owner to the\n     *     crowdsale's `tokenBalance` property.\n     * @return True if the add succeeded.\n     */\n    function crowdsaleAddTokens(string crowdsaleName, uint tokens)\n        public\n        onlyOwner\n        returns (bool success)\n    {\n        require(crowdsales[crowdsaleName].endTime > 0);\n        require(balances[owner] >= tokens);\n\n        balances[owner] = balances[owner].sub(tokens);\n        crowdsales[crowdsaleName].tokenBalance = \n            crowdsales[crowdsaleName].tokenBalance.add(tokens);\n\n        Transfer(owner, address(this), tokens);\n        return true;\n    }\n\n    /**\n     * Owner can remove tokens from the crowdsale at any time. Crowdsale must\n     *      have enough tokens in its balance for this method to succeed.\n     * @param crowdsaleName String for the name of the crowdsale. Used as the\n     *     map key to find a crowdsale struct instance in the `crowdsales` map.\n     * @param tokens Number of tokens to transfer from the crowdsale\n     *      `tokenBalance` to the owner.\n     * @return True if the remove succeeded.\n     */\n    function crowdsaleRemoveTokens(string crowdsaleName, uint tokens)\n        public\n        onlyOwner\n        returns (bool success)\n    {\n        require(crowdsales[crowdsaleName].endTime > 0);\n        require(crowdsales[crowdsaleName].tokenBalance >= tokens);\n\n        balances[owner] = balances[owner].add(tokens);\n        crowdsales[crowdsaleName].tokenBalance = \n            crowdsales[crowdsaleName].tokenBalance.sub(tokens);\n\n        Transfer(address(this), owner, tokens);\n        return true;\n    }\n\n    /**\n     * Owner can change the crowdsale's `exchangeRate` after it is deployed.\n     * @param crowdsaleName String for the name of the crowdsale. Used as the\n     *     map key to find a crowdsale struct instance in the `crowdsales` map.\n     * @param newExchangeRate Ratio of token wei to Ethereum wei for crowdsale\n     *     purchases.\n     * @return True if the update succeeded.\n     */\n    function crowdsaleUpdateExchangeRate(\n        string crowdsaleName,\n        uint newExchangeRate\n    )\n        public\n        onlyOwner\n        returns (bool success)\n    {\n        // Only works on crowdsales that exist\n        require(crowdsales[crowdsaleName].endTime > 0);\n        crowdsales[crowdsaleName].exchangeRate = newExchangeRate;\n        return true;\n    }\n\n    /**\n     * Any wallet can purchase tokens using ether if the crowdsale is open. Note\n     *     that the math operations assume the operands are Ethereum wei and\n     *     Token wei.\n     * @param crowdsaleName String for the name of the crowdsale. Used as the\n     *     map key to find a crowdsale struct instance in the `crowdsales` map.\n     * @param beneficiary Address of the wallet that will receive the tokens from\n     *     the purchase. This can be any wallet address.\n     * @return True if the purchase succeeded.\n     */\n    function crowdsalePurchase(\n        string crowdsaleName,\n        address beneficiary\n    )\n        public\n        payable\n        returns (bool success)\n    {\n        require(crowdsaleIsOpen(crowdsaleName));\n\n        uint tokens = crowdsales[crowdsaleName].exchangeRate.mul(msg.value);\n        require(crowdsales[crowdsaleName].tokenBalance >= tokens);\n\n        crowdsales[crowdsaleName].tokenBalance =\n            crowdsales[crowdsaleName].tokenBalance.sub(tokens);\n        balances[beneficiary] = balances[beneficiary].add(tokens);\n\n        Transfer(address(this), beneficiary, tokens);\n        return true;\n    }\n\n    /**\n     * Gets all the details for a declared crowdsale. If the passed name is not\n     *     associated with an existing crowdsale, the call errors.\n     * @param crowdsaleName String for the name of the crowdsale. Used as the\n     *     map key to find a crowdsale struct instance in the `crowdsales` map.\n     * @return Each member of a declared crowdsale struct.\n     */\n    function getCrowdsaleDetails(string crowdsaleName)\n        public\n        view\n        returns\n    (\n        string name_,\n        bool open,\n        uint initialTokenSupply,\n        uint tokenBalance,\n        uint exchangeRate,\n        uint startTime,\n        uint endTime\n    )\n    {\n        require(crowdsales[crowdsaleName].endTime > 0);\n        return (\n            crowdsaleName,\n            crowdsales[crowdsaleName].open,\n            crowdsales[crowdsaleName].initialTokenSupply,\n            crowdsales[crowdsaleName].tokenBalance,\n            crowdsales[crowdsaleName].exchangeRate,\n            crowdsales[crowdsaleName].startTime,\n            crowdsales[crowdsaleName].endTime\n        );\n    }\n\n    /**\n     * Gets the number of tokens the crowdsale has not yet sold.\n     * @param crowdsaleName String for the name of the crowdsale. Used as the\n     *     map key to find a crowdsale struct instance in the `crowdsales` map.\n     * @return Total number of tokens the crowdsale has not yet sold.\n     */\n    function crowdsaleTokenBalance(string crowdsaleName)\n        public\n        view\n        returns (uint)\n    {\n        require(crowdsales[crowdsaleName].endTime > 0);\n        return crowdsales[crowdsaleName].tokenBalance;\n    }\n\n    /**\n     * Check if the crowdsale is open.\n     * @param crowdsaleName String for the name of the crowdsale. Used as the\n     *     map key to find a crowdsale struct instance in the `crowdsales` map.\n     * @return True if the crowdsale is open, false if it is closed.\n     */\n    function crowdsaleIsOpen(string crowdsaleName) public view returns (bool) {\n        bool result = true;\n\n        if (\n            !crowdsales[crowdsaleName].open\n            || crowdsales[crowdsaleName].startTime > now\n            || crowdsales[crowdsaleName].endTime < now\n        ) {\n            result = false;\n        }\n\n        return result;\n    }\n}\n",
  "sourcePath": "/home/fkp/crowdsalable-eth-token/contracts/Token.sol",
  "compiler": {
    "name": "solc",
    "version": "0.4.21+commit.dfe3193c.Emscripten.clang"
  },
  "schemaVersion": "2.0.0",
  "updatedAt": "2018-04-05T09:11:56.890Z"
}